{
  "contractName": "ConsumerRole",
  "abi": [
    {
      "constant": false,
      "inputs": [],
      "name": "renounceOwnership",
      "outputs": [],
      "payable": false,
      "stateMutability": "nonpayable",
      "type": "function"
    },
    {
      "constant": true,
      "inputs": [],
      "name": "owner",
      "outputs": [
        {
          "name": "",
          "type": "address"
        }
      ],
      "payable": false,
      "stateMutability": "view",
      "type": "function"
    },
    {
      "constant": true,
      "inputs": [],
      "name": "isOwner",
      "outputs": [
        {
          "name": "",
          "type": "bool"
        }
      ],
      "payable": false,
      "stateMutability": "view",
      "type": "function"
    },
    {
      "constant": false,
      "inputs": [
        {
          "name": "newOwner",
          "type": "address"
        }
      ],
      "name": "transferOwnership",
      "outputs": [],
      "payable": false,
      "stateMutability": "nonpayable",
      "type": "function"
    },
    {
      "inputs": [],
      "payable": false,
      "stateMutability": "nonpayable",
      "type": "constructor"
    },
    {
      "anonymous": false,
      "inputs": [
        {
          "indexed": true,
          "name": "account",
          "type": "address"
        }
      ],
      "name": "ConsumerAdded",
      "type": "event"
    },
    {
      "anonymous": false,
      "inputs": [
        {
          "indexed": true,
          "name": "account",
          "type": "address"
        }
      ],
      "name": "ConsumerRemoved",
      "type": "event"
    },
    {
      "anonymous": false,
      "inputs": [
        {
          "indexed": true,
          "name": "oldOwner",
          "type": "address"
        },
        {
          "indexed": true,
          "name": "newOwner",
          "type": "address"
        }
      ],
      "name": "TransferOwnership",
      "type": "event"
    },
    {
      "constant": true,
      "inputs": [
        {
          "name": "account",
          "type": "address"
        }
      ],
      "name": "isConsumer",
      "outputs": [
        {
          "name": "",
          "type": "bool"
        }
      ],
      "payable": false,
      "stateMutability": "view",
      "type": "function"
    },
    {
      "constant": false,
      "inputs": [
        {
          "name": "account",
          "type": "address"
        }
      ],
      "name": "addConsumer",
      "outputs": [],
      "payable": false,
      "stateMutability": "nonpayable",
      "type": "function"
    },
    {
      "constant": false,
      "inputs": [],
      "name": "renounceConsumer",
      "outputs": [],
      "payable": false,
      "stateMutability": "nonpayable",
      "type": "function"
    }
  ],
  "bytecode": "0x608060405234801561001057600080fd5b50336000806101000a81548173ffffffffffffffffffffffffffffffffffffffff021916908373ffffffffffffffffffffffffffffffffffffffff1602179055506000809054906101000a900473ffffffffffffffffffffffffffffffffffffffff1673ffffffffffffffffffffffffffffffffffffffff16600073ffffffffffffffffffffffffffffffffffffffff167f5c486528ec3e3f0ea91181cff8116f02bfa350e03b8b6f12e00765adbb5af85c60405160405180910390a36100e5336100ea640100000000026401000000009004565b6103df565b61010b8160016101516401000000000261095e179091906401000000009004565b8073ffffffffffffffffffffffffffffffffffffffff167f28b26e7a3d20aedbc5f8f2ebf7da671c0491723a2b78f47a097b0e46dee0714260405160405180910390a250565b600073ffffffffffffffffffffffffffffffffffffffff168173ffffffffffffffffffffffffffffffffffffffff16141515156101f6576040517f08c379a000000000000000000000000000000000000000000000000000000000815260040180806020018281038252600f8152602001807f766572696679206163636f756e7420000000000000000000000000000000000081525060200191505060405180910390fd5b61020f82826102e2640100000000026401000000009004565b151515610284576040517f08c379a00000000000000000000000000000000000000000000000000000000081526004018080602001828103825260208152602001807f766572696679206163636f756e7420686173206e6f74207468697320726f6c6581525060200191505060405180910390fd5b60018260000160008373ffffffffffffffffffffffffffffffffffffffff1673ffffffffffffffffffffffffffffffffffffffff16815260200190815260200160002060006101000a81548160ff0219169083151502179055505050565b60008073ffffffffffffffffffffffffffffffffffffffff168273ffffffffffffffffffffffffffffffffffffffff1614151515610388576040517f08c379a00000000000000000000000000000000000000000000000000000000081526004018080602001828103825260178152602001807f4163636f756e74206973206e6f7420766572696669656400000000000000000081525060200191505060405180910390fd5b8260000160008373ffffffffffffffffffffffffffffffffffffffff1673ffffffffffffffffffffffffffffffffffffffff16815260200190815260200160002060009054906101000a900460ff16905092915050565b610c8d806103ee6000396000f300608060405260043610610083576000357c0100000000000000000000000000000000000000000000000000000000900463ffffffff168063112940f91461008857806361e6982d146100cb578063715018a6146100e2578063834ff739146100f95780638da5cb5b146101545780638f32d59b146101ab578063f2fde38b146101da575b600080fd5b34801561009457600080fd5b506100c9600480360381019080803573ffffffffffffffffffffffffffffffffffffffff16906020019092919050505061021d565b005b3480156100d757600080fd5b506100e06102cb565b005b3480156100ee57600080fd5b506100f7610378565b005b34801561010557600080fd5b5061013a600480360381019080803573ffffffffffffffffffffffffffffffffffffffff1690602001909291905050506104d9565b604051808215151515815260200191505060405180910390f35b34801561016057600080fd5b506101696104f6565b604051808273ffffffffffffffffffffffffffffffffffffffff1673ffffffffffffffffffffffffffffffffffffffff16815260200191505060405180910390f35b3480156101b757600080fd5b506101c061051f565b604051808215151515815260200191505060405180910390f35b3480156101e657600080fd5b5061021b600480360381019080803573ffffffffffffffffffffffffffffffffffffffff169060200190929190505050610576565b005b61022561051f565b15156102bf576040517f08c379a000000000000000000000000000000000000000000000000000000000815260040180806020018281038252602b8152602001807f4f6e6c7920636f6e7472616374206f776e65722063616e2063616c6c2074686981526020017f732066756e6374696f6e2e00000000000000000000000000000000000000000081525060400191505060405180910390fd5b6102c881610624565b50565b6102d361051f565b151561036d576040517f08c379a000000000000000000000000000000000000000000000000000000000815260040180806020018281038252602b8152602001807f4f6e6c7920636f6e7472616374206f776e65722063616e2063616c6c2074686981526020017f732066756e6374696f6e2e00000000000000000000000000000000000000000081525060400191505060405180910390fd5b6103763361067e565b565b61038061051f565b151561041a576040517f08c379a000000000000000000000000000000000000000000000000000000000815260040180806020018281038252602b8152602001807f4f6e6c7920636f6e7472616374206f776e65722063616e2063616c6c2074686981526020017f732066756e6374696f6e2e00000000000000000000000000000000000000000081525060400191505060405180910390fd5b600073ffffffffffffffffffffffffffffffffffffffff166000809054906101000a900473ffffffffffffffffffffffffffffffffffffffff1673ffffffffffffffffffffffffffffffffffffffff167f5c486528ec3e3f0ea91181cff8116f02bfa350e03b8b6f12e00765adbb5af85c60405160405180910390a360008060006101000a81548173ffffffffffffffffffffffffffffffffffffffff021916908373ffffffffffffffffffffffffffffffffffffffff160217905550565b60006104ef8260016106d890919063ffffffff16565b9050919050565b60008060009054906101000a900473ffffffffffffffffffffffffffffffffffffffff16905090565b60008060009054906101000a900473ffffffffffffffffffffffffffffffffffffffff1673ffffffffffffffffffffffffffffffffffffffff163373ffffffffffffffffffffffffffffffffffffffff1614905090565b61057e61051f565b1515610618576040517f08c379a000000000000000000000000000000000000000000000000000000000815260040180806020018281038252602b8152602001807f4f6e6c7920636f6e7472616374206f776e65722063616e2063616c6c2074686981526020017f732066756e6374696f6e2e00000000000000000000000000000000000000000081525060400191505060405180910390fd5b610621816107d5565b50565b61063881600161095e90919063ffffffff16565b8073ffffffffffffffffffffffffffffffffffffffff167f28b26e7a3d20aedbc5f8f2ebf7da671c0491723a2b78f47a097b0e46dee0714260405160405180910390a250565b610692816001610ae090919063ffffffff16565b8073ffffffffffffffffffffffffffffffffffffffff167fe3f5ed5f263f1f01764a96edfc7d025f511ec5f7d180e8816908b78bcf74f09860405160405180910390a250565b60008073ffffffffffffffffffffffffffffffffffffffff168273ffffffffffffffffffffffffffffffffffffffff161415151561077e576040517f08c379a00000000000000000000000000000000000000000000000000000000081526004018080602001828103825260178152602001807f4163636f756e74206973206e6f7420766572696669656400000000000000000081525060200191505060405180910390fd5b8260000160008373ffffffffffffffffffffffffffffffffffffffff1673ffffffffffffffffffffffffffffffffffffffff16815260200190815260200160002060009054906101000a900460ff16905092915050565b600073ffffffffffffffffffffffffffffffffffffffff168173ffffffffffffffffffffffffffffffffffffffff16141515156108a0576040517f08c379a00000000000000000000000000000000000000000000000000000000081526004018080602001828103825260228152602001807f4f6e6c79206f776e65722063616e2063616c6c20746869732066756e6374696f81526020017f6e2e00000000000000000000000000000000000000000000000000000000000081525060400191505060405180910390fd5b8073ffffffffffffffffffffffffffffffffffffffff166000809054906101000a900473ffffffffffffffffffffffffffffffffffffffff1673ffffffffffffffffffffffffffffffffffffffff167f5c486528ec3e3f0ea91181cff8116f02bfa350e03b8b6f12e00765adbb5af85c60405160405180910390a3806000806101000a81548173ffffffffffffffffffffffffffffffffffffffff021916908373ffffffffffffffffffffffffffffffffffffffff16021790555050565b600073ffffffffffffffffffffffffffffffffffffffff168173ffffffffffffffffffffffffffffffffffffffff1614151515610a03576040517f08c379a000000000000000000000000000000000000000000000000000000000815260040180806020018281038252600f8152602001807f766572696679206163636f756e7420000000000000000000000000000000000081525060200191505060405180910390fd5b610a0d82826106d8565b151515610a82576040517f08c379a00000000000000000000000000000000000000000000000000000000081526004018080602001828103825260208152602001807f766572696679206163636f756e7420686173206e6f74207468697320726f6c6581525060200191505060405180910390fd5b60018260000160008373ffffffffffffffffffffffffffffffffffffffff1673ffffffffffffffffffffffffffffffffffffffff16815260200190815260200160002060006101000a81548160ff0219169083151502179055505050565b600073ffffffffffffffffffffffffffffffffffffffff168173ffffffffffffffffffffffffffffffffffffffff1614151515610b85576040517f08c379a000000000000000000000000000000000000000000000000000000000815260040180806020018281038252600e8152602001807f766572696679206163636f756e7400000000000000000000000000000000000081525060200191505060405180910390fd5b610b8f82826106d8565b1515610c03576040517f08c379a000000000000000000000000000000000000000000000000000000000815260040180806020018281038252601c8152602001807f766572696679206163636f756e7420686173207468697320726f6c650000000081525060200191505060405180910390fd5b60008260000160008373ffffffffffffffffffffffffffffffffffffffff1673ffffffffffffffffffffffffffffffffffffffff16815260200190815260200160002060006101000a81548160ff02191690831515021790555050505600a165627a7a72305820a4049eee126e9a5cc69605d6427d1098859ec62621727800bfbd695360846b670029",
  "source": "pragma solidity ^0.4.24;\n\n// Import the library 'Roles'\nimport \"./Roles.sol\";\nimport \"../coffeecore/Ownable.sol\";\n\n  /**\n  * @title ConsumerRole\n  * @dev Contract to manage the Role Consumer. \n  */\ncontract ConsumerRole is Ownable {\n    using Roles for Roles.Role;\n    \n    // Define an Event Consumer is added\n    event ConsumerAdded(address indexed account);\n    // Define an Event Consumer is removed\n    event ConsumerRemoved(address indexed account);\n\n    // Struct 'consumers' is inheriting from 'Roles' library, struct Role\n    Roles.Role private consumers;\n\n    // The address that deploys this contract is the 1st consumer\n    constructor() public {\n        _addConsumer(msg.sender);\n    }\n\n    // Modifier that checks to see if msg.sender has the appropriate role\n    modifier onlyConsumer() {\n        require(isConsumer(msg.sender), \"Caller is not a consumer.\");\n        _;\n    }\n\n    // Function 'isConsumer' to check this role\n    function isConsumer(address account) public view returns (bool) {\n        return consumers.has(account);\n    }\n\n\n    // Function 'addConsumer' that adds this role\n    function addConsumer(address account) public  onlyOwner{\n        _addConsumer(account);\n    }\n\n    // Function 'renounceFarmer' to renounce this role\n    function renounceConsumer() public onlyOwner{\n        _removeConsumer(msg.sender);\n    }\n\n    // Internal function '_addConsumer' to add this role, called by 'addConsumer'\n    function _addConsumer(address account) internal {\n        consumers.add(account);\n        emit ConsumerAdded(account);\n    }\n\n    // Internal function '_removeConsumer' to remove this role, called by 'removeConsumer'\n    function _removeConsumer(address account) internal {\n        consumers.remove(account);\n        emit ConsumerRemoved(account);\n    }\n}",
  "sourcePath": "/Users/nacikalyoncu/Documents/Vagrant-VM/vagrant/blockchain/BlockchainDeveloper/Projects/udbcd-project6-b/contracts/coffeeaccesscontrol/ConsumerRole.sol",
  "compiler": {
    "name": "solc",
    "version": "0.4.25+commit.59dbf8f1.Emscripten.clang"
  },
  "schemaVersion": "2.0.2",
  "updatedAt": "2019-02-26T16:59:18.235Z"
}