{
  "contractName": "RetailerRole",
  "abi": [
    {
      "constant": false,
      "inputs": [],
      "name": "renounceOwnership",
      "outputs": [],
      "payable": false,
      "stateMutability": "nonpayable",
      "type": "function"
    },
    {
      "constant": true,
      "inputs": [],
      "name": "owner",
      "outputs": [
        {
          "name": "",
          "type": "address"
        }
      ],
      "payable": false,
      "stateMutability": "view",
      "type": "function"
    },
    {
      "constant": true,
      "inputs": [],
      "name": "isOwner",
      "outputs": [
        {
          "name": "",
          "type": "bool"
        }
      ],
      "payable": false,
      "stateMutability": "view",
      "type": "function"
    },
    {
      "constant": false,
      "inputs": [
        {
          "name": "newOwner",
          "type": "address"
        }
      ],
      "name": "transferOwnership",
      "outputs": [],
      "payable": false,
      "stateMutability": "nonpayable",
      "type": "function"
    },
    {
      "inputs": [],
      "payable": false,
      "stateMutability": "nonpayable",
      "type": "constructor"
    },
    {
      "anonymous": false,
      "inputs": [
        {
          "indexed": true,
          "name": "account",
          "type": "address"
        }
      ],
      "name": "RetailerAdded",
      "type": "event"
    },
    {
      "anonymous": false,
      "inputs": [
        {
          "indexed": true,
          "name": "account",
          "type": "address"
        }
      ],
      "name": "RetailerRemoved",
      "type": "event"
    },
    {
      "anonymous": false,
      "inputs": [
        {
          "indexed": true,
          "name": "oldOwner",
          "type": "address"
        },
        {
          "indexed": true,
          "name": "newOwner",
          "type": "address"
        }
      ],
      "name": "TransferOwnership",
      "type": "event"
    },
    {
      "constant": true,
      "inputs": [
        {
          "name": "account",
          "type": "address"
        }
      ],
      "name": "isRetailer",
      "outputs": [
        {
          "name": "",
          "type": "bool"
        }
      ],
      "payable": false,
      "stateMutability": "view",
      "type": "function"
    },
    {
      "constant": false,
      "inputs": [
        {
          "name": "account",
          "type": "address"
        }
      ],
      "name": "addRetailer",
      "outputs": [],
      "payable": false,
      "stateMutability": "nonpayable",
      "type": "function"
    },
    {
      "constant": false,
      "inputs": [],
      "name": "renounceRetailer",
      "outputs": [],
      "payable": false,
      "stateMutability": "nonpayable",
      "type": "function"
    }
  ],
  "bytecode": "0x608060405234801561001057600080fd5b50336000806101000a81548173ffffffffffffffffffffffffffffffffffffffff021916908373ffffffffffffffffffffffffffffffffffffffff1602179055506000809054906101000a900473ffffffffffffffffffffffffffffffffffffffff1673ffffffffffffffffffffffffffffffffffffffff16600073ffffffffffffffffffffffffffffffffffffffff167f5c486528ec3e3f0ea91181cff8116f02bfa350e03b8b6f12e00765adbb5af85c60405160405180910390a36100e5336100ea640100000000026401000000009004565b6103df565b61010b8160016101516401000000000261095e179091906401000000009004565b8073ffffffffffffffffffffffffffffffffffffffff167f71ae26cad02663e3d92efd6ec56031a80d74a20c0ab4183faa8bf262261c9baa60405160405180910390a250565b600073ffffffffffffffffffffffffffffffffffffffff168173ffffffffffffffffffffffffffffffffffffffff16141515156101f6576040517f08c379a000000000000000000000000000000000000000000000000000000000815260040180806020018281038252600f8152602001807f766572696679206163636f756e7420000000000000000000000000000000000081525060200191505060405180910390fd5b61020f82826102e2640100000000026401000000009004565b151515610284576040517f08c379a00000000000000000000000000000000000000000000000000000000081526004018080602001828103825260208152602001807f766572696679206163636f756e7420686173206e6f74207468697320726f6c6581525060200191505060405180910390fd5b60018260000160008373ffffffffffffffffffffffffffffffffffffffff1673ffffffffffffffffffffffffffffffffffffffff16815260200190815260200160002060006101000a81548160ff0219169083151502179055505050565b60008073ffffffffffffffffffffffffffffffffffffffff168273ffffffffffffffffffffffffffffffffffffffff1614151515610388576040517f08c379a00000000000000000000000000000000000000000000000000000000081526004018080602001828103825260178152602001807f4163636f756e74206973206e6f7420766572696669656400000000000000000081525060200191505060405180910390fd5b8260000160008373ffffffffffffffffffffffffffffffffffffffff1673ffffffffffffffffffffffffffffffffffffffff16815260200190815260200160002060009054906101000a900460ff16905092915050565b610c8d806103ee6000396000f300608060405260043610610083576000357c0100000000000000000000000000000000000000000000000000000000900463ffffffff1680635da09b8814610088578063715018a6146100e35780638da5cb5b146100fa5780638ec4f505146101515780638f32d59b14610194578063db0e6a2f146101c3578063f2fde38b146101da575b600080fd5b34801561009457600080fd5b506100c9600480360381019080803573ffffffffffffffffffffffffffffffffffffffff16906020019092919050505061021d565b604051808215151515815260200191505060405180910390f35b3480156100ef57600080fd5b506100f861023a565b005b34801561010657600080fd5b5061010f61039b565b604051808273ffffffffffffffffffffffffffffffffffffffff1673ffffffffffffffffffffffffffffffffffffffff16815260200191505060405180910390f35b34801561015d57600080fd5b50610192600480360381019080803573ffffffffffffffffffffffffffffffffffffffff1690602001909291905050506103c4565b005b3480156101a057600080fd5b506101a9610472565b604051808215151515815260200191505060405180910390f35b3480156101cf57600080fd5b506101d86104c9565b005b3480156101e657600080fd5b5061021b600480360381019080803573ffffffffffffffffffffffffffffffffffffffff169060200190929190505050610576565b005b600061023382600161062490919063ffffffff16565b9050919050565b610242610472565b15156102dc576040517f08c379a000000000000000000000000000000000000000000000000000000000815260040180806020018281038252602b8152602001807f4f6e6c7920636f6e7472616374206f776e65722063616e2063616c6c2074686981526020017f732066756e6374696f6e2e00000000000000000000000000000000000000000081525060400191505060405180910390fd5b600073ffffffffffffffffffffffffffffffffffffffff166000809054906101000a900473ffffffffffffffffffffffffffffffffffffffff1673ffffffffffffffffffffffffffffffffffffffff167f5c486528ec3e3f0ea91181cff8116f02bfa350e03b8b6f12e00765adbb5af85c60405160405180910390a360008060006101000a81548173ffffffffffffffffffffffffffffffffffffffff021916908373ffffffffffffffffffffffffffffffffffffffff160217905550565b60008060009054906101000a900473ffffffffffffffffffffffffffffffffffffffff16905090565b6103cc610472565b1515610466576040517f08c379a000000000000000000000000000000000000000000000000000000000815260040180806020018281038252602b8152602001807f4f6e6c7920636f6e7472616374206f776e65722063616e2063616c6c2074686981526020017f732066756e6374696f6e2e00000000000000000000000000000000000000000081525060400191505060405180910390fd5b61046f81610721565b50565b60008060009054906101000a900473ffffffffffffffffffffffffffffffffffffffff1673ffffffffffffffffffffffffffffffffffffffff163373ffffffffffffffffffffffffffffffffffffffff1614905090565b6104d1610472565b151561056b576040517f08c379a000000000000000000000000000000000000000000000000000000000815260040180806020018281038252602b8152602001807f4f6e6c7920636f6e7472616374206f776e65722063616e2063616c6c2074686981526020017f732066756e6374696f6e2e00000000000000000000000000000000000000000081525060400191505060405180910390fd5b6105743361077b565b565b61057e610472565b1515610618576040517f08c379a000000000000000000000000000000000000000000000000000000000815260040180806020018281038252602b8152602001807f4f6e6c7920636f6e7472616374206f776e65722063616e2063616c6c2074686981526020017f732066756e6374696f6e2e00000000000000000000000000000000000000000081525060400191505060405180910390fd5b610621816107d5565b50565b60008073ffffffffffffffffffffffffffffffffffffffff168273ffffffffffffffffffffffffffffffffffffffff16141515156106ca576040517f08c379a00000000000000000000000000000000000000000000000000000000081526004018080602001828103825260178152602001807f4163636f756e74206973206e6f7420766572696669656400000000000000000081525060200191505060405180910390fd5b8260000160008373ffffffffffffffffffffffffffffffffffffffff1673ffffffffffffffffffffffffffffffffffffffff16815260200190815260200160002060009054906101000a900460ff16905092915050565b61073581600161095e90919063ffffffff16565b8073ffffffffffffffffffffffffffffffffffffffff167f71ae26cad02663e3d92efd6ec56031a80d74a20c0ab4183faa8bf262261c9baa60405160405180910390a250565b61078f816001610ae090919063ffffffff16565b8073ffffffffffffffffffffffffffffffffffffffff167fdb7176e79cffef81cb01767dd0447a0b24bb72ca9778d4b245581086b2a7e6db60405160405180910390a250565b600073ffffffffffffffffffffffffffffffffffffffff168173ffffffffffffffffffffffffffffffffffffffff16141515156108a0576040517f08c379a00000000000000000000000000000000000000000000000000000000081526004018080602001828103825260228152602001807f4f6e6c79206f776e65722063616e2063616c6c20746869732066756e6374696f81526020017f6e2e00000000000000000000000000000000000000000000000000000000000081525060400191505060405180910390fd5b8073ffffffffffffffffffffffffffffffffffffffff166000809054906101000a900473ffffffffffffffffffffffffffffffffffffffff1673ffffffffffffffffffffffffffffffffffffffff167f5c486528ec3e3f0ea91181cff8116f02bfa350e03b8b6f12e00765adbb5af85c60405160405180910390a3806000806101000a81548173ffffffffffffffffffffffffffffffffffffffff021916908373ffffffffffffffffffffffffffffffffffffffff16021790555050565b600073ffffffffffffffffffffffffffffffffffffffff168173ffffffffffffffffffffffffffffffffffffffff1614151515610a03576040517f08c379a000000000000000000000000000000000000000000000000000000000815260040180806020018281038252600f8152602001807f766572696679206163636f756e7420000000000000000000000000000000000081525060200191505060405180910390fd5b610a0d8282610624565b151515610a82576040517f08c379a00000000000000000000000000000000000000000000000000000000081526004018080602001828103825260208152602001807f766572696679206163636f756e7420686173206e6f74207468697320726f6c6581525060200191505060405180910390fd5b60018260000160008373ffffffffffffffffffffffffffffffffffffffff1673ffffffffffffffffffffffffffffffffffffffff16815260200190815260200160002060006101000a81548160ff0219169083151502179055505050565b600073ffffffffffffffffffffffffffffffffffffffff168173ffffffffffffffffffffffffffffffffffffffff1614151515610b85576040517f08c379a000000000000000000000000000000000000000000000000000000000815260040180806020018281038252600e8152602001807f766572696679206163636f756e7400000000000000000000000000000000000081525060200191505060405180910390fd5b610b8f8282610624565b1515610c03576040517f08c379a000000000000000000000000000000000000000000000000000000000815260040180806020018281038252601c8152602001807f766572696679206163636f756e7420686173207468697320726f6c650000000081525060200191505060405180910390fd5b60008260000160008373ffffffffffffffffffffffffffffffffffffffff1673ffffffffffffffffffffffffffffffffffffffff16815260200190815260200160002060006101000a81548160ff02191690831515021790555050505600a165627a7a723058208c92713fe0f20308f1de7acb3ddd2c94b41eb1af55e2eea8dafddb3a528ccf730029",
  "source": "pragma solidity ^0.4.24;\n\n// Import the library 'Roles'\nimport \"./Roles.sol\";\nimport \"../coffeecore/Ownable.sol\";\n\n  /**\n  * @title RetailerRole\n  * @dev Contract to manage the Role Retailer. \n  */\ncontract RetailerRole is Ownable{\n\n    using Roles for Roles.Role;\n\n    // Define an  Event Retailer is added\n    event RetailerAdded(address indexed account);\n    // Define an  Event Retailer is removed\n    event RetailerRemoved(address indexed account);\n    \n    // Struct 'retailers' is inheriting from 'Roles' library, struct Role\n    Roles.Role private retailers;\n\n    // The address that deploys this contract is the 1st retailer\n    constructor() public {\n        _addRetailer(msg.sender);\n    }\n\n    // Modifier that checks to see if msg.sender has the appropriate role\n    modifier onlyRetailer() {\n        require(isRetailer(msg.sender), \"Caller is not a retailer.\");\n        _;\n    }\n\n    // Function 'isRetailer' to check this role\n    function isRetailer(address account) public view returns (bool) {\n        return retailers.has(account);\n    }\n\n    // Function 'addRetailer' that adds this role\n    function addRetailer(address account) public onlyOwner {\n        _addRetailer(account);\n    }\n\n    // Function 'renounceRetailer' to renounce this role\n    function renounceRetailer() public onlyOwner{\n        _removeRetailer(msg.sender);\n    }\n\n    // Internal function '_addRetailer' to add this role, called by 'addRetailer'\n    function _addRetailer(address account) internal {\n        retailers.add(account);\n        emit RetailerAdded(account);\n    }\n\n     // Internal function '_removeRetailer' to remove this role, called by 'removeRetailer'\n    function _removeRetailer(address account) internal {\n        retailers.remove(account);\n        emit RetailerRemoved(account);\n      \n    }\n}",
  "sourcePath": "/Users/nacikalyoncu/Documents/Vagrant-VM/vagrant/blockchain/BlockchainDeveloper/Projects/udbcd-project6-b/contracts/coffeeaccesscontrol/RetailerRole.sol",
  "compiler": {
    "name": "solc",
    "version": "0.4.25+commit.59dbf8f1.Emscripten.clang"
  },
  "schemaVersion": "2.0.2",
  "updatedAt": "2019-02-26T16:59:18.232Z"
}